{
  "contractName": "VoteFactory",
  "abi": [
    {
      "constant": true,
      "inputs": [
        {
          "name": "",
          "type": "uint256"
        }
      ],
      "name": "answersToVote",
      "outputs": [
        {
          "name": "voteId",
          "type": "uint256"
        },
        {
          "name": "answerId",
          "type": "uint256"
        },
        {
          "name": "answer",
          "type": "string"
        }
      ],
      "payable": false,
      "stateMutability": "view",
      "type": "function"
    },
    {
      "constant": true,
      "inputs": [
        {
          "name": "",
          "type": "uint256"
        }
      ],
      "name": "votes",
      "outputs": [
        {
          "name": "question",
          "type": "string"
        },
        {
          "name": "state",
          "type": "uint8"
        }
      ],
      "payable": false,
      "stateMutability": "view",
      "type": "function"
    },
    {
      "constant": false,
      "inputs": [],
      "name": "renounceOwnership",
      "outputs": [],
      "payable": false,
      "stateMutability": "nonpayable",
      "type": "function"
    },
    {
      "constant": true,
      "inputs": [],
      "name": "owner",
      "outputs": [
        {
          "name": "",
          "type": "address"
        }
      ],
      "payable": false,
      "stateMutability": "view",
      "type": "function"
    },
    {
      "constant": false,
      "inputs": [
        {
          "name": "_newOwner",
          "type": "address"
        }
      ],
      "name": "transferOwnership",
      "outputs": [],
      "payable": false,
      "stateMutability": "nonpayable",
      "type": "function"
    },
    {
      "anonymous": false,
      "inputs": [
        {
          "indexed": false,
          "name": "_voteId",
          "type": "uint256"
        },
        {
          "indexed": false,
          "name": "question",
          "type": "string"
        }
      ],
      "name": "NewVote",
      "type": "event"
    },
    {
      "anonymous": false,
      "inputs": [
        {
          "indexed": false,
          "name": "voteId",
          "type": "uint256"
        },
        {
          "indexed": false,
          "name": "answerId",
          "type": "uint256"
        },
        {
          "indexed": false,
          "name": "answer",
          "type": "string"
        }
      ],
      "name": "settedAnswer",
      "type": "event"
    },
    {
      "anonymous": false,
      "inputs": [
        {
          "indexed": true,
          "name": "previousOwner",
          "type": "address"
        }
      ],
      "name": "OwnershipRenounced",
      "type": "event"
    },
    {
      "anonymous": false,
      "inputs": [
        {
          "indexed": true,
          "name": "previousOwner",
          "type": "address"
        },
        {
          "indexed": true,
          "name": "newOwner",
          "type": "address"
        }
      ],
      "name": "OwnershipTransferred",
      "type": "event"
    },
    {
      "constant": false,
      "inputs": [
        {
          "name": "_question",
          "type": "string"
        },
        {
          "name": "_newOwner",
          "type": "address"
        }
      ],
      "name": "createVote",
      "outputs": [],
      "payable": false,
      "stateMutability": "nonpayable",
      "type": "function"
    },
    {
      "constant": false,
      "inputs": [
        {
          "name": "_voteId",
          "type": "uint256"
        },
        {
          "name": "_answer",
          "type": "string"
        }
      ],
      "name": "addAnswer",
      "outputs": [],
      "payable": false,
      "stateMutability": "nonpayable",
      "type": "function"
    },
    {
      "constant": false,
      "inputs": [
        {
          "name": "_voteId",
          "type": "uint256"
        },
        {
          "name": "_answerId",
          "type": "uint256"
        },
        {
          "name": "_answer",
          "type": "string"
        }
      ],
      "name": "setAnswer",
      "outputs": [
        {
          "name": "",
          "type": "uint256"
        },
        {
          "name": "",
          "type": "uint256"
        },
        {
          "name": "",
          "type": "string"
        }
      ],
      "payable": false,
      "stateMutability": "nonpayable",
      "type": "function"
    },
    {
      "constant": false,
      "inputs": [
        {
          "name": "_voteId",
          "type": "uint256"
        }
      ],
      "name": "startVote",
      "outputs": [],
      "payable": false,
      "stateMutability": "nonpayable",
      "type": "function"
    },
    {
      "constant": false,
      "inputs": [
        {
          "name": "_voteId",
          "type": "uint256"
        },
        {
          "name": "_answerId",
          "type": "uint256"
        },
        {
          "name": "_answer",
          "type": "string"
        }
      ],
      "name": "cast",
      "outputs": [],
      "payable": false,
      "stateMutability": "nonpayable",
      "type": "function"
    },
    {
      "constant": true,
      "inputs": [
        {
          "name": "_voteId",
          "type": "uint256"
        }
      ],
      "name": "results",
      "outputs": [
        {
          "name": "",
          "type": "uint256"
        },
        {
          "name": "",
          "type": "uint256"
        },
        {
          "name": "",
          "type": "string"
        }
      ],
      "payable": false,
      "stateMutability": "view",
      "type": "function"
    },
    {
      "constant": false,
      "inputs": [
        {
          "name": "_voteId",
          "type": "uint256"
        },
        {
          "name": "_newOwner",
          "type": "address"
        }
      ],
      "name": "stopVote",
      "outputs": [],
      "payable": false,
      "stateMutability": "nonpayable",
      "type": "function"
    }
  ],
  "bytecode": "0x6080604052336000806101000a81548173ffffffffffffffffffffffffffffffffffffffff021916908373ffffffffffffffffffffffffffffffffffffffff1602179055506117eb806100536000396000f3006080604052600436106100ba576000357c0100000000000000000000000000000000000000000000000000000000900463ffffffff1680631b0c27da146100bf5780632a3eee6b146101735780633f220524146102275780635df8133014610254578063715018a61461030f5780637491995a146103265780637e4ca6cc146103995780638da5cb5b14610422578063998d1ee014610479578063b46fc8ef146104f6578063bd28f8f114610543578063f2fde38b14610647575b600080fd5b3480156100cb57600080fd5b506100ea6004803603810190808035906020019092919050505061068a565b6040518084815260200183815260200180602001828103825283818151815260200191508051906020019080838360005b8381101561013657808201518184015260208101905061011b565b50505050905090810190601f1680156101635780820380516001836020036101000a031916815260200191505b5094505050505060405180910390f35b34801561017f57600080fd5b5061019e600480360381019080803590602001909291905050506107ea565b6040518084815260200183815260200180602001828103825283818151815260200191508051906020019080838360005b838110156101ea5780820151818401526020810190506101cf565b50505050905090810190601f1680156102175780820380516001836020036101000a031916815260200191505b5094505050505060405180910390f35b34801561023357600080fd5b50610252600480360381019080803590602001909291905050506108bb565b005b34801561026057600080fd5b5061027f60048036038101908080359060200190929190505050610953565b604051808060200183600281111561029357fe5b60ff168152602001828103825284818151815260200191508051906020019080838360005b838110156102d35780820151818401526020810190506102b8565b50505050905090810190601f1680156103005780820380516001836020036101000a031916815260200191505b50935050505060405180910390f35b34801561031b57600080fd5b50610324610a2b565b005b34801561033257600080fd5b5061039760048036038101908080359060200190929190803590602001908201803590602001908080601f0160208091040260200160405190810160405280939291908181526020018383808284378201915050505050509192919290505050610b2d565b005b3480156103a557600080fd5b50610420600480360381019080803590602001908201803590602001908080601f0160208091040260200160405190810160405280939291908181526020018383808284378201915050505050509192919290803573ffffffffffffffffffffffffffffffffffffffff169060200190929190505050610ca1565b005b34801561042e57600080fd5b50610437610ed4565b604051808273ffffffffffffffffffffffffffffffffffffffff1673ffffffffffffffffffffffffffffffffffffffff16815260200191505060405180910390f35b34801561048557600080fd5b506104f46004803603810190808035906020019092919080359060200190929190803590602001908201803590602001908080601f0160208091040260200160405190810160405280939291908181526020018383808284378201915050505050509192919290505050610ef9565b005b34801561050257600080fd5b5061054160048036038101908080359060200190929190803573ffffffffffffffffffffffffffffffffffffffff169060200190929190505050611095565b005b34801561054f57600080fd5b506105be6004803603810190808035906020019092919080359060200190929190803590602001908201803590602001908080601f016020809104026020016040519081016040528093929190818152602001838380828437820191505050505050919291929050505061118a565b6040518084815260200183815260200180602001828103825283818151815260200191508051906020019080838360005b8381101561060a5780820151818401526020810190506105ef565b50505050905090810190601f1680156106375780820380516001836020036101000a031916815260200191505b5094505050505060405180910390f35b34801561065357600080fd5b50610688600480360381019080803573ffffffffffffffffffffffffffffffffffffffff169060200190929190505050611465565b005b600080606060008090505b600280549050811115156107e157846002828154811015156106b357fe5b90600052602060002090600302016000015414156107d4576002818154811015156106da57fe5b9060005260206000209060030201600001546002828154811015156106fb57fe5b90600052602060002090600302016001015460028381548110151561071c57fe5b9060005260206000209060030201600201808054600181600116156101000203166002900480601f0160208091040260200160405190810160405280929190818152602001828054600181600116156101000203166002900480156107c25780601f10610797576101008083540402835291602001916107c2565b820191906000526020600020905b8154815290600101906020018083116107a557829003601f168201915b505050505090509350935093506107e2565b8080600101915050610695565b5b509193909250565b6002818154811015156107f957fe5b9060005260206000209060030201600091509050806000015490806001015490806002018054600181600116156101000203166002900480601f0160208091040260200160405190810160405280929190818152602001828054600181600116156101000203166002900480156108b15780601f10610886576101008083540402835291602001916108b1565b820191906000526020600020905b81548152906001019060200180831161089457829003601f168201915b5050505050905083565b80600060028111156108c957fe5b6001828154811015156108d857fe5b906000526020600020906003020160020160009054906101000a900460ff16600281111561090257fe5b14151561090e57600080fd5b6001808381548110151561091e57fe5b906000526020600020906003020160020160006101000a81548160ff0219169083600281111561094a57fe5b02179055505050565b60018181548110151561096257fe5b9060005260206000209060030201600091509050806000018054600181600116156101000203166002900480601f016020809104026020016040519081016040528092919081815260200182805460018160011615610100020316600290048015610a0e5780601f106109e357610100808354040283529160200191610a0e565b820191906000526020600020905b8154815290600101906020018083116109f157829003601f168201915b5050505050908060020160009054906101000a900460ff16905082565b6000809054906101000a900473ffffffffffffffffffffffffffffffffffffffff1673ffffffffffffffffffffffffffffffffffffffff163373ffffffffffffffffffffffffffffffffffffffff16141515610a8657600080fd5b6000809054906101000a900473ffffffffffffffffffffffffffffffffffffffff1673ffffffffffffffffffffffffffffffffffffffff167ff8df31144d9c2f0f6b59d69b8b98abd5459d07f2742c4df920b25aae33c6482060405160405180910390a260008060006101000a81548173ffffffffffffffffffffffffffffffffffffffff021916908373ffffffffffffffffffffffffffffffffffffffff160217905550565b8160006002811115610b3b57fe5b600182815481101515610b4a57fe5b906000526020600020906003020160020160009054906101000a900460ff166002811115610b7457fe5b141515610b8057600080fd5b3373ffffffffffffffffffffffffffffffffffffffff166003600085815260200190815260200160002060009054906101000a900473ffffffffffffffffffffffffffffffffffffffff1673ffffffffffffffffffffffffffffffffffffffff16141515610bed57600080fd5b600183815481101515610bfc57fe5b9060005260206000209060030201600101829080600181540180825580915050906001820390600052602060002001600090919290919091509080519060200190610c489291906115c6565b5050336003600085815260200190815260200160002060006101000a81548173ffffffffffffffffffffffffffffffffffffffff021916908373ffffffffffffffffffffffffffffffffffffffff160217905550505050565b6000610cac826114cc565b8173ffffffffffffffffffffffffffffffffffffffff163373ffffffffffffffffffffffffffffffffffffffff16141515610ce657600080fd5b6001806060604051908101604052808681526020016000604051908082528060200260200182016040528015610d3057816020015b6060815260200190600190039081610d1b5790505b50815260200160006002811115610d4357fe5b815250908060018154018082558091505090600182039060005260206000209060030201600090919290919091506000820151816000019080519060200190610d8d929190611646565b506020820151816001019080519060200190610daa9291906116c6565b5060408201518160020160006101000a81548160ff02191690836002811115610dcf57fe5b02179055505050039050336003600083815260200190815260200160002060006101000a81548173ffffffffffffffffffffffffffffffffffffffff021916908373ffffffffffffffffffffffffffffffffffffffff1602179055507ffbc7d019f26597e3cba88291ed61a467373eda642f9e5ba50aced121ebce57c081846040518083815260200180602001828103825283818151815260200191508051906020019080838360005b83811015610e94578082015181840152602081019050610e79565b50505050905090810190601f168015610ec15780820380516001836020036101000a031916815260200191505b50935050505060405180910390a1505050565b6000809054906101000a900473ffffffffffffffffffffffffffffffffffffffff1681565b60008360016002811115610f0957fe5b600182815481101515610f1857fe5b906000526020600020906003020160020160009054906101000a900460ff166002811115610f4257fe5b141515610f4e57600080fd5b3373ffffffffffffffffffffffffffffffffffffffff166003600087815260200190815260200160002060009054906101000a900473ffffffffffffffffffffffffffffffffffffffff1673ffffffffffffffffffffffffffffffffffffffff16141515610fbb57600080fd5b60016002606060405190810160405280888152602001878152602001868152509080600181540180825580915050906001820390600052602060002090600302016000909192909190915060008201518160000155602082015181600101556040820151816002019080519060200190611036929190611646565b505050039150336003600084815260200190815260200160002060006101000a81548173ffffffffffffffffffffffffffffffffffffffff021916908373ffffffffffffffffffffffffffffffffffffffff1602179055505050505050565b816002808111156110a257fe5b6001828154811015156110b157fe5b906000526020600020906003020160020160009054906101000a900460ff1660028111156110db57fe5b1415156110e757600080fd5b6000809054906101000a900473ffffffffffffffffffffffffffffffffffffffff1673ffffffffffffffffffffffffffffffffffffffff163373ffffffffffffffffffffffffffffffffffffffff1614151561114257600080fd5b61114b826114cc565b3373ffffffffffffffffffffffffffffffffffffffff168273ffffffffffffffffffffffffffffffffffffffff1614151561118557600080fd5b505050565b60008060606000866000600281111561119f57fe5b6001828154811015156111ae57fe5b906000526020600020906003020160020160009054906101000a900460ff1660028111156111d857fe5b1415156111e457600080fd5b3373ffffffffffffffffffffffffffffffffffffffff16600360008a815260200190815260200160002060009054906101000a900473ffffffffffffffffffffffffffffffffffffffff1673ffffffffffffffffffffffffffffffffffffffff1614151561125157600080fd5b600091505b60018881548110151561126557fe5b9060005260206000209060030201600101805490508211151561145957856040518082805190602001908083835b6020831015156112b85780518252602082019150602081019050602083039250611293565b6001836020036101000a0380198251168184511680821785525050505050509050019150506040518091039020600019166001898154811015156112f857fe5b90600052602060002090600302016001018381548110151561131657fe5b90600052602060002001604051808280546001816001161561010002031660029004801561137b5780601f1061135957610100808354040283529182019161137b565b820191906000526020600020905b815481529060010190602001808311611367575b5050915050604051809103902060001916141561144c577f11b00a3907c916cd8dd69083c4288faaa3ea89f3309de478acc0efe72fd4dca18888886040518084815260200183815260200180602001828103825283818151815260200191508051906020019080838360005b838110156114025780820151818401526020810190506113e7565b50505050905090810190601f16801561142f5780820380516001836020036101000a031916815260200191505b5094505050505060405180910390a187878794509450945061145a565b8180600101925050611256565b5b505093509350939050565b6000809054906101000a900473ffffffffffffffffffffffffffffffffffffffff1673ffffffffffffffffffffffffffffffffffffffff163373ffffffffffffffffffffffffffffffffffffffff161415156114c057600080fd5b6114c9816114cc565b50565b600073ffffffffffffffffffffffffffffffffffffffff168173ffffffffffffffffffffffffffffffffffffffff161415151561150857600080fd5b8073ffffffffffffffffffffffffffffffffffffffff166000809054906101000a900473ffffffffffffffffffffffffffffffffffffffff1673ffffffffffffffffffffffffffffffffffffffff167f8be0079c531659141344cd1fd0a4f28419497f9722a3daafe3b4186f6b6457e060405160405180910390a3806000806101000a81548173ffffffffffffffffffffffffffffffffffffffff021916908373ffffffffffffffffffffffffffffffffffffffff16021790555050565b828054600181600116156101000203166002900490600052602060002090601f016020900481019282601f1061160757805160ff1916838001178555611635565b82800160010185558215611635579182015b82811115611634578251825591602001919060010190611619565b5b5090506116429190611726565b5090565b828054600181600116156101000203166002900490600052602060002090601f016020900481019282601f1061168757805160ff19168380011785556116b5565b828001600101855582156116b5579182015b828111156116b4578251825591602001919060010190611699565b5b5090506116c29190611726565b5090565b828054828255906000526020600020908101928215611715579160200282015b82811115611714578251829080519060200190611704929190611646565b50916020019190600101906116e6565b5b509050611722919061174b565b5090565b61174891905b8082111561174457600081600090555060010161172c565b5090565b90565b61177491905b8082111561177057600081816117679190611777565b50600101611751565b5090565b90565b50805460018160011615610100020316600290046000825580601f1061179d57506117bc565b601f0160209004906000526020600020908101906117bb9190611726565b5b505600a165627a7a723058203242cae7b73b6b0e979be88a49fc0952e469e31164a79f62a594d3f2bbaa67250029",
  "source": "pragma solidity ^0.4.17; \r\n\r\nimport \"./Ownable.sol\";\r\n\r\ncontract VoteFactory is Ownable {\r\n\r\n    event NewVote(\r\n        uint _voteId,\r\n        string question\r\n    );\r\n\r\n    event settedAnswer(\r\n        uint voteId,\r\n        uint answerId,\r\n        string answer\r\n    );\r\n\r\n    enum State {\r\n        Initial,\r\n        Started,\r\n        Stopped\r\n    }\r\n\r\n    struct Vote {\r\n        string question;\r\n        string[] answers;\r\n        State state;\r\n    }\r\n\r\n    struct AnswerToVote { // Структура хранения голосов;\r\n        uint voteId;\r\n        uint answerId;\r\n        string answer;\r\n    }\r\n    \r\n    Vote[] public votes; \r\n    AnswerToVote[] public answersToVote; // Массив структур голосов;\r\n    mapping(uint => address) voteToOwner;   \r\n    \r\n    \r\n    modifier voteIsInitial(uint voteId) {\r\n        require(votes[voteId].state == State.Initial);\r\n        _;\r\n    }\r\n    \r\n    modifier voteIsStarted(uint voteId) {\r\n        require(votes[voteId].state == State.Started);\r\n        _;\r\n    }\r\n    \r\n    modifier voteIsStopped(uint voteId) {\r\n        require(votes[voteId].state == State.Stopped);\r\n        _;\r\n    }\r\n    \r\n    function createVote(string _question, address _newOwner) public {\r\n        _transferOwnership(_newOwner);\r\n        require(msg.sender == _newOwner);\r\n        uint voteId = votes.push(Vote(_question, new string[](0), State.Initial)) - 1;\r\n        voteToOwner[voteId] = msg.sender;\r\n        emit NewVote(voteId, _question);\r\n    }\r\n    \r\n    function addAnswer(uint _voteId, string _answer) public voteIsInitial(_voteId) {\r\n        require(voteToOwner[_voteId] == msg.sender);\r\n        votes[_voteId].answers.push(_answer);\r\n        voteToOwner[_voteId] = msg.sender;\r\n    }\r\n\r\n    function setAnswer(uint _voteId, uint _answerId, string _answer) public voteIsInitial(_voteId) returns(uint, uint, string) {\r\n        require(voteToOwner[_voteId] == msg.sender);\r\n        for(uint i = 0; i <= votes[_voteId].answers.length; i++) {\r\n            if (keccak256(votes[_voteId].answers[i]) == keccak256(_answer)) {\r\n                emit settedAnswer(_voteId, _answerId, _answer);\r\n                return (_voteId, _answerId, _answer);\r\n            }\r\n        }\r\n    }\r\n\r\n    function startVote(uint _voteId) public voteIsInitial(_voteId) {\r\n        votes[_voteId].state = State.Started;\r\n    }\r\n\r\n    function cast(uint256 _voteId, uint256 _answerId, string _answer) public voteIsStarted(_voteId) {\r\n        require(voteToOwner[_voteId] == msg.sender);\r\n        uint id = answersToVote.push(AnswerToVote(_voteId, _answerId, _answer)) - 1;\r\n        voteToOwner[id] = msg.sender;\r\n    }\r\n\r\n    function results(uint256 _voteId) public view returns(uint, uint, string) {\r\n        for(uint id = 0; id <= answersToVote.length; id++) {\r\n            if (answersToVote[id].voteId == _voteId) {\r\n                return ((answersToVote[id].voteId), (answersToVote[id].answerId), (answersToVote[id].answer));\r\n            }\r\n        }\r\n    }\r\n\r\n    function stopVote(uint _voteId, address _newOwner) public voteIsStopped(_voteId) onlyOwner() {\r\n        _transferOwnership(_newOwner);\r\n        require(_newOwner == msg.sender);\r\n    }\r\n}",
  "sourcePath": "C:\\Users\\gulya\\Desktop\\Blockchain\\DApps\\contracts\\VoteFactory.sol",
  "compiler": {
    "name": "solc",
    "version": "0.4.24+commit.e67f0147.Emscripten.clang"
  },
  "schemaVersion": "2.0.1",
  "updatedAt": "2018-07-18T17:06:54.968Z"
}